{
  "_format": "hh-sol-artifact-1",
  "contractName": "IdentityVerification",
  "sourceName": "contracts/IdentityVerification.sol",
  "abi": [
    {
      "anonymous": false,
      "inputs": [
        {
          "indexed": true,
          "internalType": "address",
          "name": "userAddress",
          "type": "address"
        },
        {
          "indexed": false,
          "internalType": "string",
          "name": "username",
          "type": "string"
        }
      ],
      "name": "UserRegistered",
      "type": "event"
    },
    {
      "inputs": [
        {
          "internalType": "string",
          "name": "_username",
          "type": "string"
        }
      ],
      "name": "getAddressByUsername",
      "outputs": [
        {
          "internalType": "address",
          "name": "",
          "type": "address"
        }
      ],
      "stateMutability": "view",
      "type": "function"
    },
    {
      "inputs": [
        {
          "internalType": "address",
          "name": "_userAddress",
          "type": "address"
        }
      ],
      "name": "getUserByAddress",
      "outputs": [
        {
          "components": [
            {
              "internalType": "string",
              "name": "username",
              "type": "string"
            },
            {
              "internalType": "string",
              "name": "idHash",
              "type": "string"
            },
            {
              "internalType": "string",
              "name": "passwordHash",
              "type": "string"
            },
            {
              "internalType": "address",
              "name": "walletAddress",
              "type": "address"
            }
          ],
          "internalType": "struct IdentityVerification.User",
          "name": "",
          "type": "tuple"
        }
      ],
      "stateMutability": "view",
      "type": "function"
    },
    {
      "inputs": [
        {
          "internalType": "string",
          "name": "_username",
          "type": "string"
        },
        {
          "internalType": "string",
          "name": "_idHash",
          "type": "string"
        },
        {
          "internalType": "string",
          "name": "_passwordHash",
          "type": "string"
        }
      ],
      "name": "registerUser",
      "outputs": [],
      "stateMutability": "nonpayable",
      "type": "function"
    },
    {
      "inputs": [
        {
          "internalType": "address",
          "name": "",
          "type": "address"
        }
      ],
      "name": "users",
      "outputs": [
        {
          "internalType": "string",
          "name": "username",
          "type": "string"
        },
        {
          "internalType": "string",
          "name": "idHash",
          "type": "string"
        },
        {
          "internalType": "string",
          "name": "passwordHash",
          "type": "string"
        },
        {
          "internalType": "address",
          "name": "walletAddress",
          "type": "address"
        }
      ],
      "stateMutability": "view",
      "type": "function"
    },
    {
      "inputs": [
        {
          "internalType": "string",
          "name": "_username",
          "type": "string"
        },
        {
          "internalType": "string",
          "name": "_passwordHash",
          "type": "string"
        }
      ],
      "name": "verifyUser",
      "outputs": [
        {
          "internalType": "bool",
          "name": "",
          "type": "bool"
        }
      ],
      "stateMutability": "view",
      "type": "function"
    }
  ],
  "bytecode": "0x608060405234801561001057600080fd5b50610f9c806100206000396000f3fe608060405234801561001057600080fd5b50600436106100575760003560e01c80633f360b411461005c5780636322961d1461008457806369c212f6146100af578063a87430ba146100cf578063d637dcfa146100f2575b600080fd5b61006f61006a366004610aa6565b610107565b60405190151581526020015b60405180910390f35b610097610092366004610b12565b6101d4565b6040516001600160a01b03909116815260200161007b565b6100c26100bd366004610b54565b610271565b60405161007b9190610bc3565b6100e26100dd366004610b54565b61051a565b60405161007b9493929190610c3d565b610105610100366004610c90565b6106e3565b005b6000806001868660405161011c929190610d2a565b908152604051908190036020019020546001600160a01b031690508061015d5760405162461bcd60e51b815260040161015490610d3a565b60405180910390fd5b6001600160a01b038116600090815260208181526040918290209151610187918791879101610d2a565b60405160208183030381529060405280519060200120816002016040516020016101b19190610d9c565b604051602081830303815290604052805190602001201492505050949350505050565b60008161021e5760405162461bcd60e51b8152602060048201526018602482015277557365726e616d652063616e6e6f7420626520656d70747960401b6044820152606401610154565b600060018484604051610232929190610d2a565b908152604051908190036020019020546001600160a01b031690508061026a5760405162461bcd60e51b815260040161015490610d3a565b9392505050565b6102a5604051806080016040528060608152602001606081526020016060815260200160006001600160a01b031681525090565b6001600160a01b0382166102ed5760405162461bcd60e51b815260206004820152600f60248201526e496e76616c6964206164647265737360881b6044820152606401610154565b6001600160a01b03828116600090815260208190526040902060030154166103275760405162461bcd60e51b815260040161015490610d3a565b6001600160a01b0382166000908152602081905260409081902081516080810190925280548290829061035990610d62565b80601f016020809104026020016040519081016040528092919081815260200182805461038590610d62565b80156103d25780601f106103a7576101008083540402835291602001916103d2565b820191906000526020600020905b8154815290600101906020018083116103b557829003601f168201915b505050505081526020016001820180546103eb90610d62565b80601f016020809104026020016040519081016040528092919081815260200182805461041790610d62565b80156104645780601f1061043957610100808354040283529160200191610464565b820191906000526020600020905b81548152906001019060200180831161044757829003601f168201915b5050505050815260200160028201805461047d90610d62565b80601f01602080910402602001604051908101604052809291908181526020018280546104a990610d62565b80156104f65780601f106104cb576101008083540402835291602001916104f6565b820191906000526020600020905b8154815290600101906020018083116104d957829003601f168201915b5050509183525050600391909101546001600160a01b031660209091015292915050565b60006020819052908152604090208054819061053590610d62565b80601f016020809104026020016040519081016040528092919081815260200182805461056190610d62565b80156105ae5780601f10610583576101008083540402835291602001916105ae565b820191906000526020600020905b81548152906001019060200180831161059157829003601f168201915b5050505050908060010180546105c390610d62565b80601f01602080910402602001604051908101604052809291908181526020018280546105ef90610d62565b801561063c5780601f106106115761010080835404028352916020019161063c565b820191906000526020600020905b81548152906001019060200180831161061f57829003601f168201915b50505050509080600201805461065190610d62565b80601f016020809104026020016040519081016040528092919081815260200182805461067d90610d62565b80156106ca5780601f1061069f576101008083540402835291602001916106ca565b820191906000526020600020905b8154815290600101906020018083116106ad57829003601f168201915b505050600390930154919250506001600160a01b031684565b8461072b5760405162461bcd60e51b8152602060048201526018602482015277557365726e616d652063616e6e6f7420626520656d70747960401b6044820152606401610154565b604083146107745760405162461bcd60e51b8152602060048201526016602482015275092dcecc2d8d2c840928840d0c2e6d040d8cadccee8d60531b6044820152606401610154565b604081146107c45760405162461bcd60e51b815260206004820152601c60248201527f496e76616c69642070617373776f72642068617368206c656e677468000000006044820152606401610154565b336000908152602081905260409020600301546001600160a01b03161561082d5760405162461bcd60e51b815260206004820152601760248201527f5573657220616c726561647920726567697374657265640000000000000000006044820152606401610154565b60006001600160a01b03166001878760405161084a929190610d2a565b908152604051908190036020019020546001600160a01b0316146108a95760405162461bcd60e51b81526020600482015260166024820152752ab9b2b93730b6b29030b63932b0b23c903a30b5b2b760511b6044820152606401610154565b604051806080016040528087878080601f016020809104026020016040519081016040528093929190818152602001838380828437600092019190915250505090825250604080516020601f880181900481028201810190925286815291810191908790879081908401838280828437600092019190915250505090825250604080516020601f860181900481028201810190925284815291810191908590859081908401838280828437600092018290525093855250503360209384018190528252509081905260409020815181906109839082610e77565b50602082015160018201906109989082610e77565b50604082015160028201906109ad9082610e77565b5060609190910151600390910180546001600160a01b0319166001600160a01b0390921691909117905560405133906001906109ec9089908990610d2a565b90815260405190819003602001812080546001600160a01b03939093166001600160a01b03199093169290921790915533907f48cac28ad4dc618e15f4c2dd5e97751182f166de97b25618318b2112aa951a2f90610a4d9089908990610f37565b60405180910390a2505050505050565b60008083601f840112610a6f57600080fd5b50813567ffffffffffffffff811115610a8757600080fd5b602083019150836020828501011115610a9f57600080fd5b9250929050565b60008060008060408587031215610abc57600080fd5b843567ffffffffffffffff80821115610ad457600080fd5b610ae088838901610a5d565b90965094506020870135915080821115610af957600080fd5b50610b0687828801610a5d565b95989497509550505050565b60008060208385031215610b2557600080fd5b823567ffffffffffffffff811115610b3c57600080fd5b610b4885828601610a5d565b90969095509350505050565b600060208284031215610b6657600080fd5b81356001600160a01b038116811461026a57600080fd5b6000815180845260005b81811015610ba357602081850181015186830182015201610b87565b506000602082860101526020601f19601f83011685010191505092915050565b602081526000825160806020840152610bdf60a0840182610b7d565b90506020840151601f1980858403016040860152610bfd8383610b7d565b9250604086015191508085840301606086015250610c1b8282610b7d565b606095909501516001600160a01b031660809490940193909352509192915050565b608081526000610c506080830187610b7d565b8281036020840152610c628187610b7d565b90508281036040840152610c768186610b7d565b91505060018060a01b038316606083015295945050505050565b60008060008060008060608789031215610ca957600080fd5b863567ffffffffffffffff80821115610cc157600080fd5b610ccd8a838b01610a5d565b90985096506020890135915080821115610ce657600080fd5b610cf28a838b01610a5d565b90965094506040890135915080821115610d0b57600080fd5b50610d1889828a01610a5d565b979a9699509497509295939492505050565b8183823760009101908152919050565b6020808252600e908201526d155cd95c881b9bdd08199bdd5b9960921b604082015260600190565b600181811c90821680610d7657607f821691505b602082108103610d9657634e487b7160e01b600052602260045260246000fd5b50919050565b6000808354610daa81610d62565b60018281168015610dc25760018114610dd757610e06565b60ff1984168752821515830287019450610e06565b8760005260208060002060005b85811015610dfd5781548a820152908401908201610de4565b50505082870194505b50929695505050505050565b634e487b7160e01b600052604160045260246000fd5b601f821115610e7257600081815260208120601f850160051c81016020861015610e4f5750805b601f850160051c820191505b81811015610e6e57828155600101610e5b565b5050505b505050565b815167ffffffffffffffff811115610e9157610e91610e12565b610ea581610e9f8454610d62565b84610e28565b602080601f831160018114610eda5760008415610ec25750858301515b600019600386901b1c1916600185901b178555610e6e565b600085815260208120601f198616915b82811015610f0957888601518255948401946001909101908401610eea565b5085821015610f275787850151600019600388901b60f8161c191681555b5050505050600190811b01905550565b60208152816020820152818360408301376000818301604090810191909152601f909201601f1916010191905056fea264697066735822122000e555fe28b191fd7a1375f587457493c0223a2d0056141a0678e1a3e3c54e3b64736f6c63430008150033",
  "linkReferences": {},
  "deployedLinkReferences": {}
}