{
  "contractName": "IdentityVerification",
  "abi": [
    {
      "anonymous": false,
      "inputs": [
        {
          "indexed": true,
          "internalType": "address",
          "name": "userAddress",
          "type": "address"
        },
        {
          "indexed": false,
          "internalType": "string",
          "name": "username",
          "type": "string"
        }
      ],
      "name": "UserRegistered",
      "type": "event"
    },
    {
      "inputs": [
        {
          "internalType": "address",
          "name": "",
          "type": "address"
        }
      ],
      "name": "users",
      "outputs": [
        {
          "internalType": "string",
          "name": "username",
          "type": "string"
        },
        {
          "internalType": "string",
          "name": "idHash",
          "type": "string"
        },
        {
          "internalType": "string",
          "name": "passwordHash",
          "type": "string"
        },
        {
          "internalType": "address",
          "name": "walletAddress",
          "type": "address"
        }
      ],
      "stateMutability": "view",
      "type": "function"
    },
    {
      "inputs": [
        {
          "internalType": "string",
          "name": "_username",
          "type": "string"
        },
        {
          "internalType": "string",
          "name": "_idHash",
          "type": "string"
        },
        {
          "internalType": "string",
          "name": "_passwordHash",
          "type": "string"
        }
      ],
      "name": "registerUser",
      "outputs": [],
      "stateMutability": "nonpayable",
      "type": "function"
    },
    {
      "inputs": [
        {
          "internalType": "string",
          "name": "_username",
          "type": "string"
        },
        {
          "internalType": "string",
          "name": "_passwordHash",
          "type": "string"
        }
      ],
      "name": "verifyUser",
      "outputs": [
        {
          "internalType": "bool",
          "name": "",
          "type": "bool"
        }
      ],
      "stateMutability": "view",
      "type": "function"
    },
    {
      "inputs": [
        {
          "internalType": "address",
          "name": "_userAddress",
          "type": "address"
        }
      ],
      "name": "getUserByAddress",
      "outputs": [
        {
          "components": [
            {
              "internalType": "string",
              "name": "username",
              "type": "string"
            },
            {
              "internalType": "string",
              "name": "idHash",
              "type": "string"
            },
            {
              "internalType": "string",
              "name": "passwordHash",
              "type": "string"
            },
            {
              "internalType": "address",
              "name": "walletAddress",
              "type": "address"
            }
          ],
          "internalType": "struct IdentityVerification.User",
          "name": "",
          "type": "tuple"
        }
      ],
      "stateMutability": "view",
      "type": "function"
    },
    {
      "inputs": [
        {
          "internalType": "string",
          "name": "_username",
          "type": "string"
        }
      ],
      "name": "getAddressByUsername",
      "outputs": [
        {
          "internalType": "address",
          "name": "",
          "type": "address"
        }
      ],
      "stateMutability": "view",
      "type": "function"
    }
  ],
  "bytecode": "0x608060405234801561000f575f80fd5b506119ca8061001d5f395ff3fe608060405234801561000f575f80fd5b5060043610610055575f3560e01c80633f360b41146100595780636322961d1461008957806369c212f6146100b9578063a87430ba146100e9578063d637dcfa1461011c575b5f80fd5b610073600480360381019061006e9190610e65565b610138565b6040516100809190610efd565b60405180910390f35b6100a3600480360381019061009e9190610f16565b610289565b6040516100b09190610fa0565b60405180910390f35b6100d360048036038101906100ce9190610fe3565b61038a565b6040516100e09190611115565b60405180910390f35b61010360048036038101906100fe9190610fe3565b61071e565b604051610113949392919061117d565b60405180910390f35b610136600480360381019061013191906111d5565b6108fa565b005b5f806001868660405161014c9291906112c1565b90815260200160405180910390205f9054906101000a900473ffffffffffffffffffffffffffffffffffffffff1690505f73ffffffffffffffffffffffffffffffffffffffff168173ffffffffffffffffffffffffffffffffffffffff16036101ea576040517f08c379a00000000000000000000000000000000000000000000000000000000081526004016101e190611323565b60405180910390fd5b5f805f8373ffffffffffffffffffffffffffffffffffffffff1673ffffffffffffffffffffffffffffffffffffffff1681526020019081526020015f209050848460405160200161023c9291906112c1565b60405160208183030381529060405280519060200120816002016040516020016102669190611430565b604051602081830303815290604052805190602001201492505050949350505050565b5f8083839050116102cf576040517f08c379a00000000000000000000000000000000000000000000000000000000081526004016102c690611490565b60405180910390fd5b5f600184846040516102e29291906112c1565b90815260200160405180910390205f9054906101000a900473ffffffffffffffffffffffffffffffffffffffff1690505f73ffffffffffffffffffffffffffffffffffffffff168173ffffffffffffffffffffffffffffffffffffffff1603610380576040517f08c379a000000000000000000000000000000000000000000000000000000000815260040161037790611323565b60405180910390fd5b8091505092915050565b610392610dbf565b5f73ffffffffffffffffffffffffffffffffffffffff168273ffffffffffffffffffffffffffffffffffffffff1603610400576040517f08c379a00000000000000000000000000000000000000000000000000000000081526004016103f7906114f8565b60405180910390fd5b5f73ffffffffffffffffffffffffffffffffffffffff165f808473ffffffffffffffffffffffffffffffffffffffff1673ffffffffffffffffffffffffffffffffffffffff1681526020019081526020015f206003015f9054906101000a900473ffffffffffffffffffffffffffffffffffffffff1673ffffffffffffffffffffffffffffffffffffffff16036104cc576040517f08c379a00000000000000000000000000000000000000000000000000000000081526004016104c390611323565b60405180910390fd5b5f808373ffffffffffffffffffffffffffffffffffffffff1673ffffffffffffffffffffffffffffffffffffffff1681526020019081526020015f206040518060800160405290815f820180546105229061136e565b80601f016020809104026020016040519081016040528092919081815260200182805461054e9061136e565b80156105995780601f1061057057610100808354040283529160200191610599565b820191905f5260205f20905b81548152906001019060200180831161057c57829003601f168201915b505050505081526020016001820180546105b29061136e565b80601f01602080910402602001604051908101604052809291908181526020018280546105de9061136e565b80156106295780601f1061060057610100808354040283529160200191610629565b820191905f5260205f20905b81548152906001019060200180831161060c57829003601f168201915b505050505081526020016002820180546106429061136e565b80601f016020809104026020016040519081016040528092919081815260200182805461066e9061136e565b80156106b95780601f10610690576101008083540402835291602001916106b9565b820191905f5260205f20905b81548152906001019060200180831161069c57829003601f168201915b50505050508152602001600382015f9054906101000a900473ffffffffffffffffffffffffffffffffffffffff1673ffffffffffffffffffffffffffffffffffffffff1673ffffffffffffffffffffffffffffffffffffffff16815250509050919050565b5f602052805f5260405f205f91509050805f01805461073c9061136e565b80601f01602080910402602001604051908101604052809291908181526020018280546107689061136e565b80156107b35780601f1061078a576101008083540402835291602001916107b3565b820191905f5260205f20905b81548152906001019060200180831161079657829003601f168201915b5050505050908060010180546107c89061136e565b80601f01602080910402602001604051908101604052809291908181526020018280546107f49061136e565b801561083f5780601f106108165761010080835404028352916020019161083f565b820191905f5260205f20905b81548152906001019060200180831161082257829003601f168201915b5050505050908060020180546108549061136e565b80601f01602080910402602001604051908101604052809291908181526020018280546108809061136e565b80156108cb5780601f106108a2576101008083540402835291602001916108cb565b820191905f5260205f20905b8154815290600101906020018083116108ae57829003601f168201915b505050505090806003015f9054906101000a900473ffffffffffffffffffffffffffffffffffffffff16905084565b5f868690501161093f576040517f08c379a000000000000000000000000000000000000000000000000000000000815260040161093690611490565b60405180910390fd5b60408484905014610985576040517f08c379a000000000000000000000000000000000000000000000000000000000815260040161097c90611560565b60405180910390fd5b604082829050146109cb576040517f08c379a00000000000000000000000000000000000000000000000000000000081526004016109c2906115c8565b60405180910390fd5b5f73ffffffffffffffffffffffffffffffffffffffff165f803373ffffffffffffffffffffffffffffffffffffffff1673ffffffffffffffffffffffffffffffffffffffff1681526020019081526020015f206003015f9054906101000a900473ffffffffffffffffffffffffffffffffffffffff1673ffffffffffffffffffffffffffffffffffffffff1614610a97576040517f08c379a0000000000000000000000000000000000000000000000000000000008152600401610a8e90611630565b60405180910390fd5b5f73ffffffffffffffffffffffffffffffffffffffff1660018787604051610ac09291906112c1565b90815260200160405180910390205f9054906101000a900473ffffffffffffffffffffffffffffffffffffffff1673ffffffffffffffffffffffffffffffffffffffff1614610b44576040517f08c379a0000000000000000000000000000000000000000000000000000000008152600401610b3b90611698565b60405180910390fd5b604051806080016040528087878080601f0160208091040260200160405190810160405280939291908181526020018383808284375f81840152601f19601f82011690508083019250505050505050815260200185858080601f0160208091040260200160405190810160405280939291908181526020018383808284375f81840152601f19601f82011690508083019250505050505050815260200183838080601f0160208091040260200160405190810160405280939291908181526020018383808284375f81840152601f19601f8201169050808301925050505050505081526020013373ffffffffffffffffffffffffffffffffffffffff168152505f803373ffffffffffffffffffffffffffffffffffffffff1673ffffffffffffffffffffffffffffffffffffffff1681526020019081526020015f205f820151815f019081610c939190611877565b506020820151816001019081610ca99190611877565b506040820151816002019081610cbf9190611877565b506060820151816003015f6101000a81548173ffffffffffffffffffffffffffffffffffffffff021916908373ffffffffffffffffffffffffffffffffffffffff1602179055509050503360018787604051610d1c9291906112c1565b90815260200160405180910390205f6101000a81548173ffffffffffffffffffffffffffffffffffffffff021916908373ffffffffffffffffffffffffffffffffffffffff1602179055503373ffffffffffffffffffffffffffffffffffffffff167f48cac28ad4dc618e15f4c2dd5e97751182f166de97b25618318b2112aa951a2f8787604051610daf929190611972565b60405180910390a2505050505050565b60405180608001604052806060815260200160608152602001606081526020015f73ffffffffffffffffffffffffffffffffffffffff1681525090565b5f80fd5b5f80fd5b5f80fd5b5f80fd5b5f80fd5b5f8083601f840112610e2557610e24610e04565b5b8235905067ffffffffffffffff811115610e4257610e41610e08565b5b602083019150836001820283011115610e5e57610e5d610e0c565b5b9250929050565b5f805f8060408587031215610e7d57610e7c610dfc565b5b5f85013567ffffffffffffffff811115610e9a57610e99610e00565b5b610ea687828801610e10565b9450945050602085013567ffffffffffffffff811115610ec957610ec8610e00565b5b610ed587828801610e10565b925092505092959194509250565b5f8115159050919050565b610ef781610ee3565b82525050565b5f602082019050610f105f830184610eee565b92915050565b5f8060208385031215610f2c57610f2b610dfc565b5b5f83013567ffffffffffffffff811115610f4957610f48610e00565b5b610f5585828601610e10565b92509250509250929050565b5f73ffffffffffffffffffffffffffffffffffffffff82169050919050565b5f610f8a82610f61565b9050919050565b610f9a81610f80565b82525050565b5f602082019050610fb35f830184610f91565b92915050565b610fc281610f80565b8114610fcc575f80fd5b50565b5f81359050610fdd81610fb9565b92915050565b5f60208284031215610ff857610ff7610dfc565b5b5f61100584828501610fcf565b91505092915050565b5f81519050919050565b5f82825260208201905092915050565b5f5b8381101561104557808201518184015260208101905061102a565b5f8484015250505050565b5f601f19601f8301169050919050565b5f61106a8261100e565b6110748185611018565b9350611084818560208601611028565b61108d81611050565b840191505092915050565b6110a181610f80565b82525050565b5f608083015f8301518482035f8601526110c18282611060565b915050602083015184820360208601526110db8282611060565b915050604083015184820360408601526110f58282611060565b915050606083015161110a6060860182611098565b508091505092915050565b5f6020820190508181035f83015261112d81846110a7565b905092915050565b5f82825260208201905092915050565b5f61114f8261100e565b6111598185611135565b9350611169818560208601611028565b61117281611050565b840191505092915050565b5f6080820190508181035f8301526111958187611145565b905081810360208301526111a98186611145565b905081810360408301526111bd8185611145565b90506111cc6060830184610f91565b95945050505050565b5f805f805f80606087890312156111ef576111ee610dfc565b5b5f87013567ffffffffffffffff81111561120c5761120b610e00565b5b61121889828a01610e10565b9650965050602087013567ffffffffffffffff81111561123b5761123a610e00565b5b61124789828a01610e10565b9450945050604087013567ffffffffffffffff81111561126a57611269610e00565b5b61127689828a01610e10565b92509250509295509295509295565b5f81905092915050565b828183375f83830152505050565b5f6112a88385611285565b93506112b583858461128f565b82840190509392505050565b5f6112cd82848661129d565b91508190509392505050565b7f55736572206e6f7420666f756e640000000000000000000000000000000000005f82015250565b5f61130d600e83611135565b9150611318826112d9565b602082019050919050565b5f6020820190508181035f83015261133a81611301565b9050919050565b7f4e487b71000000000000000000000000000000000000000000000000000000005f52602260045260245ffd5b5f600282049050600182168061138557607f821691505b60208210810361139857611397611341565b5b50919050565b5f819050815f5260205f209050919050565b5f81546113bc8161136e565b6113c68186611285565b9450600182165f81146113e057600181146113f557611427565b60ff1983168652811515820286019350611427565b6113fe8561139e565b5f5b8381101561141f57815481890152600182019150602081019050611400565b838801955050505b50505092915050565b5f61143b82846113b0565b915081905092915050565b7f557365726e616d652063616e6e6f7420626520656d70747900000000000000005f82015250565b5f61147a601883611135565b915061148582611446565b602082019050919050565b5f6020820190508181035f8301526114a78161146e565b9050919050565b7f496e76616c6964206164647265737300000000000000000000000000000000005f82015250565b5f6114e2600f83611135565b91506114ed826114ae565b602082019050919050565b5f6020820190508181035f83015261150f816114d6565b9050919050565b7f496e76616c69642049442068617368206c656e677468000000000000000000005f82015250565b5f61154a601683611135565b915061155582611516565b602082019050919050565b5f6020820190508181035f8301526115778161153e565b9050919050565b7f496e76616c69642070617373776f72642068617368206c656e677468000000005f82015250565b5f6115b2601c83611135565b91506115bd8261157e565b602082019050919050565b5f6020820190508181035f8301526115df816115a6565b9050919050565b7f5573657220616c726561647920726567697374657265640000000000000000005f82015250565b5f61161a601783611135565b9150611625826115e6565b602082019050919050565b5f6020820190508181035f8301526116478161160e565b9050919050565b7f557365726e616d6520616c72656164792074616b656e000000000000000000005f82015250565b5f611682601683611135565b915061168d8261164e565b602082019050919050565b5f6020820190508181035f8301526116af81611676565b9050919050565b7f4e487b71000000000000000000000000000000000000000000000000000000005f52604160045260245ffd5b5f6020601f8301049050919050565b5f82821b905092915050565b5f6008830261172d7fffffffffffffffffffffffffffffffffffffffffffffffffffffffffffffffff826116f2565b61173786836116f2565b95508019841693508086168417925050509392505050565b5f819050919050565b5f819050919050565b5f61177b6117766117718461174f565b611758565b61174f565b9050919050565b5f819050919050565b61179483611761565b6117a86117a082611782565b8484546116fe565b825550505050565b5f90565b6117bc6117b0565b6117c781848461178b565b505050565b5b818110156117ea576117df5f826117b4565b6001810190506117cd565b5050565b601f82111561182f576118008161139e565b611809846116e3565b81016020851015611818578190505b61182c611824856116e3565b8301826117cc565b50505b505050565b5f82821c905092915050565b5f61184f5f1984600802611834565b1980831691505092915050565b5f6118678383611840565b9150826002028217905092915050565b6118808261100e565b67ffffffffffffffff811115611899576118986116b6565b5b6118a3825461136e565b6118ae8282856117ee565b5f60209050601f8311600181146118df575f84156118cd578287015190505b6118d7858261185c565b86555061193e565b601f1984166118ed8661139e565b5f5b82811015611914578489015182556001820191506020850194506020810190506118ef565b86831015611931578489015161192d601f891682611840565b8355505b6001600288020188555050505b505050505050565b5f6119518385611135565b935061195e83858461128f565b61196783611050565b840190509392505050565b5f6020820190508181035f83015261198b818486611946565b9050939250505056fea26469706673582212207320161b89803a1aeb7d3c5beee8f789cf018b23f9f61da1cdd94ae88154d94b64736f6c63430008150033",
  "immutableReferences": {},
  "source": "// SPDX-License-Identifier: MIT\r\npragma solidity ^0.8.21; // Updated to match your compiler version\r\n\r\ncontract IdentityVerification {\r\n    struct User {\r\n        string username;\r\n        string idHash;\r\n        string passwordHash;\r\n        address walletAddress;\r\n    }\r\n\r\n    mapping(address => User) public users;\r\n    mapping(string => address) private _usernameToAddress; // Made private for better encapsulation\r\n\r\n    event UserRegistered(address indexed userAddress, string username);\r\n\r\n    // Added input validation and gas optimizations\r\n    function registerUser(\r\n        string calldata _username,\r\n        string calldata _idHash,\r\n        string calldata _passwordHash\r\n    ) external {\r\n        require(bytes(_username).length > 0, \"Username cannot be empty\");\r\n        require(bytes(_idHash).length == 64, \"Invalid ID hash length\"); // Assuming SHA-256 hash\r\n        require(bytes(_passwordHash).length == 64, \"Invalid password hash length\");\r\n        require(users[msg.sender].walletAddress == address(0), \"User already registered\");\r\n        require(_usernameToAddress[_username] == address(0), \"Username already taken\");\r\n\r\n        users[msg.sender] = User({\r\n            username: _username,\r\n            idHash: _idHash,\r\n            passwordHash: _passwordHash,\r\n            walletAddress: msg.sender\r\n        });\r\n\r\n        _usernameToAddress[_username] = msg.sender;\r\n        emit UserRegistered(msg.sender, _username);\r\n    }\r\n\r\n    // Improved with explicit visibility and gas optimizations\r\n    function verifyUser(\r\n        string calldata _username,\r\n        string calldata _passwordHash\r\n    ) external view returns (bool) {\r\n        address userAddress = _usernameToAddress[_username];\r\n        require(userAddress != address(0), \"User not found\");\r\n        \r\n        User storage user = users[userAddress]; // Using storage instead of memory for efficiency\r\n        return keccak256(abi.encodePacked(user.passwordHash)) == keccak256(abi.encodePacked(_passwordHash));\r\n    }\r\n\r\n    // Added input validation\r\n    function getUserByAddress(address _userAddress) external view returns (User memory) {\r\n        require(_userAddress != address(0), \"Invalid address\");\r\n        require(users[_userAddress].walletAddress != address(0), \"User not found\");\r\n        return users[_userAddress];\r\n    }\r\n\r\n    // Added input validation\r\n    function getAddressByUsername(string calldata _username) external view returns (address) {\r\n        require(bytes(_username).length > 0, \"Username cannot be empty\");\r\n        address userAddress = _usernameToAddress[_username];\r\n        require(userAddress != address(0), \"User not found\");\r\n        return userAddress;\r\n    }\r\n}",
  "sourcePath": "C:\\Users\\91807\\OneDrive\\Desktop\\decentralized-id-verification\\new-backend\\contracts\\IdentityVerification.sol",
  "compiler": {
    "name": "solc",
    "version": "0.8.21+commit.d9974bed.Emscripten.clang"
  },
  "schemaVersion": "3.4.16",
  "updatedAt": "2025-05-18T08:05:52.344Z",
  "devdoc": {
    "kind": "dev",
    "methods": {},
    "version": 1
  },
  "userdoc": {
    "kind": "user",
    "methods": {},
    "version": 1
  }
}